{
  "_format": "hh-sol-artifact-1",
  "contractName": "XoraCreditScore",
  "sourceName": "contracts/XoraCreditScore.sol",
  "abi": [
    {
      "inputs": [],
      "stateMutability": "nonpayable",
      "type": "constructor"
    },
    {
      "anonymous": false,
      "inputs": [
        {
          "indexed": true,
          "internalType": "address",
          "name": "_requester",
          "type": "address"
        },
        {
          "indexed": true,
          "internalType": "uint256",
          "name": "_score",
          "type": "uint256"
        }
      ],
      "name": "CreditScoreRequestCreated",
      "type": "event"
    },
    {
      "anonymous": false,
      "inputs": [
        {
          "indexed": true,
          "internalType": "address",
          "name": "previousOwner",
          "type": "address"
        },
        {
          "indexed": true,
          "internalType": "address",
          "name": "newOwner",
          "type": "address"
        }
      ],
      "name": "OwnershipTransferred",
      "type": "event"
    },
    {
      "inputs": [
        {
          "internalType": "address",
          "name": "requester",
          "type": "address"
        }
      ],
      "name": "createCreditScoreRequest",
      "outputs": [
        {
          "components": [
            {
              "internalType": "uint256",
              "name": "balanceETH",
              "type": "uint256"
            },
            {
              "internalType": "uint256",
              "name": "balanceUSD",
              "type": "uint256"
            },
            {
              "internalType": "uint256",
              "name": "erc20BalanceETH",
              "type": "uint256"
            },
            {
              "internalType": "uint256",
              "name": "erc20BalanceUSD",
              "type": "uint256"
            },
            {
              "internalType": "uint256",
              "name": "monthlyIncomeETH",
              "type": "uint256"
            },
            {
              "internalType": "uint256",
              "name": "monthlyIncomeUSD",
              "type": "uint256"
            }
          ],
          "internalType": "struct XoraCreditScore.CreditScoreInput",
          "name": "",
          "type": "tuple"
        }
      ],
      "stateMutability": "nonpayable",
      "type": "function"
    },
    {
      "inputs": [
        {
          "internalType": "address",
          "name": "requester",
          "type": "address"
        }
      ],
      "name": "getCreditScoreInput",
      "outputs": [
        {
          "components": [
            {
              "internalType": "uint256",
              "name": "balanceETH",
              "type": "uint256"
            },
            {
              "internalType": "uint256",
              "name": "balanceUSD",
              "type": "uint256"
            },
            {
              "internalType": "uint256",
              "name": "erc20BalanceETH",
              "type": "uint256"
            },
            {
              "internalType": "uint256",
              "name": "erc20BalanceUSD",
              "type": "uint256"
            },
            {
              "internalType": "uint256",
              "name": "monthlyIncomeETH",
              "type": "uint256"
            },
            {
              "internalType": "uint256",
              "name": "monthlyIncomeUSD",
              "type": "uint256"
            }
          ],
          "internalType": "struct XoraCreditScore.CreditScoreInput",
          "name": "",
          "type": "tuple"
        }
      ],
      "stateMutability": "view",
      "type": "function"
    },
    {
      "inputs": [],
      "name": "getLatestPriceEthUsd",
      "outputs": [
        {
          "internalType": "int256",
          "name": "",
          "type": "int256"
        }
      ],
      "stateMutability": "view",
      "type": "function"
    },
    {
      "inputs": [],
      "name": "getLatestPriceLinkEth",
      "outputs": [
        {
          "internalType": "int256",
          "name": "",
          "type": "int256"
        }
      ],
      "stateMutability": "view",
      "type": "function"
    },
    {
      "inputs": [],
      "name": "owner",
      "outputs": [
        {
          "internalType": "address",
          "name": "",
          "type": "address"
        }
      ],
      "stateMutability": "view",
      "type": "function"
    },
    {
      "inputs": [],
      "name": "renounceOwnership",
      "outputs": [],
      "stateMutability": "nonpayable",
      "type": "function"
    },
    {
      "inputs": [
        {
          "internalType": "address",
          "name": "requester",
          "type": "address"
        },
        {
          "internalType": "uint256",
          "name": "amount",
          "type": "uint256"
        }
      ],
      "name": "setMonthlyIncomeETH",
      "outputs": [],
      "stateMutability": "nonpayable",
      "type": "function"
    },
    {
      "inputs": [
        {
          "internalType": "address",
          "name": "newOwner",
          "type": "address"
        }
      ],
      "name": "transferOwnership",
      "outputs": [],
      "stateMutability": "nonpayable",
      "type": "function"
    },
    {
      "inputs": [
        {
          "internalType": "address",
          "name": "requester",
          "type": "address"
        },
        {
          "internalType": "bytes",
          "name": "_proof",
          "type": "bytes"
        },
        {
          "internalType": "bytes32[]",
          "name": "_publicInputs",
          "type": "bytes32[]"
        }
      ],
      "name": "verifyCreditScorePrediction",
      "outputs": [
        {
          "internalType": "bool",
          "name": "",
          "type": "bool"
        }
      ],
      "stateMutability": "nonpayable",
      "type": "function"
    }
  ],
  "bytecode": "0x60c060405234801561001057600080fd5b5061001a33610075565b7359f1ec1f10bd7ed9b938431086bc1d9e233ecf4160805273dc97ca0f3521c7f271555175314b812816ed125b60a052600380546001600160a01b03191673231d45b53c905c3d6201318156bdc725c9c3b9b11790556100c5565b600080546001600160a01b038381166001600160a01b0319831681178455604051919092169283917f8be0079c531659141344cd1fd0a4f28419497f9722a3daafe3b4186f6b6457e09190a35050565b60805160a051610cb36100ea60003960006101bd0152600061026b0152610cb36000f3fe608060405234801561001057600080fd5b50600436106100935760003560e01c80638da5cb5b116100665780638da5cb5b146100ef578063a57ecf6c1461010a578063aba4e75314610169578063d89b7c7c1461017c578063f2fde38b1461019f57600080fd5b80632dc5970d146100985780636948f5ba146100b3578063715018a6146100df57806385f2e6fb146100e7575b600080fd5b6100a06101b2565b6040519081526020015b60405180910390f35b6100dd6100c13660046108c2565b6001600160a01b03909116600090815260046020526040902055565b005b6100dd61024c565b6100a0610260565b6000546040516001600160a01b0390911681526020016100aa565b61011d6101183660046108ec565b6102c7565b6040516100aa9190600060c082019050825182526020830151602083015260408301516040830152606083015160608301526080830151608083015260a083015160a083015292915050565b61011d6101773660046108ec565b610437565b61018f61018a36600461090e565b6105de565b60405190151581526020016100aa565b6100dd6101ad3660046108ec565b61071e565b6000806000806000807f00000000000000000000000000000000000000000000000000000000000000006001600160a01b031663feaf968c6040518163ffffffff1660e01b815260040160a060405180830381865afa158015610219573d6000803e3d6000fd5b505050506040513d601f19601f8201168201806040525081019061023d9190610a04565b50919998505050505050505050565b61025461079c565b61025e60006107f6565b565b6000806000806000807f00000000000000000000000000000000000000000000000000000000000000006001600160a01b031663feaf968c6040518163ffffffff1660e01b815260040160a060405180830381865afa158015610219573d6000803e3d6000fd5b6103006040518060c001604052806000815260200160008152602001600081526020016000815260200160008152602001600081525090565b6001600160a01b038216316000610315610260565b61031f9083610a54565b9050600061032b6101b2565b6003546040516370a0823160e01b81526001600160a01b038881166004830152909116906370a0823190602401602060405180830381865afa158015610375573d6000803e3d6000fd5b505050506040513d601f19601f820116820180604052508101906103999190610a7f565b6103a39190610a54565b905060006103af610260565b6103b99083610a54565b905060006103c5610260565b6001600160a01b0388166000908152600460205260409020546103e89190610a54565b6040805160c081018252968752602080880196909652868101949094526060860192909252506001600160a01b0390951660009081526004909252902054608082015260a08101929092525090565b6104706040518060c001604052806000815260200160008152602001600081526020016000815260200160008152602001600081525090565b6001600160a01b038216316000610485610260565b61048f9083610a54565b9050600061049b6101b2565b6003546040516370a0823160e01b81526001600160a01b038881166004830152909116906370a0823190602401602060405180830381865afa1580156104e5573d6000803e3d6000fd5b505050506040513d601f19601f820116820180604052508101906105099190610a7f565b6105139190610a54565b9050600061051f610260565b6105299083610a54565b90506000610535610260565b6001600160a01b0388166000908152600460205260409020546105589190610a54565b6040805160c0810182529687526020808801968752878201958652606088019485526001600160a01b0390991660008181526004808c528382205460808b0190815260a08b0195865292825260019b8c90529290208851815596519987019990995593516002860155915160038501555094519082015592516005909301929092555090565b600080866001600160a01b031663ea50d0e4878787876040518563ffffffff1660e01b81526004016106139493929190610a98565b602060405180830381865afa158015610630573d6000803e3d6000fd5b505050506040513d601f19601f820116820180604052508101906106549190610afc565b90508015610714576040805160606020601f89018190040282018101835291810187815290918291908990899081908501838280828437600092019190915250505090825250604080516020878102828101820190935287825292830192909188918891829185019084908082843760009201829052509390945250506001600160a01b038a168152600260205260409020825190915081906106f79082610bbd565b5060208281015180516107109260018501920190610846565b5050505b9695505050505050565b61072661079c565b6001600160a01b0381166107905760405162461bcd60e51b815260206004820152602660248201527f4f776e61626c653a206e6577206f776e657220697320746865207a65726f206160448201526564647265737360d01b60648201526084015b60405180910390fd5b610799816107f6565b50565b6000546001600160a01b0316331461025e5760405162461bcd60e51b815260206004820181905260248201527f4f776e61626c653a2063616c6c6572206973206e6f7420746865206f776e65726044820152606401610787565b600080546001600160a01b038381166001600160a01b0319831681178455604051919092169283917f8be0079c531659141344cd1fd0a4f28419497f9722a3daafe3b4186f6b6457e09190a35050565b828054828255906000526020600020908101928215610881579160200282015b82811115610881578251825591602001919060010190610866565b5061088d929150610891565b5090565b5b8082111561088d5760008155600101610892565b80356001600160a01b03811681146108bd57600080fd5b919050565b600080604083850312156108d557600080fd5b6108de836108a6565b946020939093013593505050565b6000602082840312156108fe57600080fd5b610907826108a6565b9392505050565b60008060008060006060868803121561092657600080fd5b61092f866108a6565b9450602086013567ffffffffffffffff8082111561094c57600080fd5b818801915088601f83011261096057600080fd5b81358181111561096f57600080fd5b89602082850101111561098157600080fd5b60208301965080955050604088013591508082111561099f57600080fd5b818801915088601f8301126109b357600080fd5b8135818111156109c257600080fd5b8960208260051b85010111156109d757600080fd5b9699959850939650602001949392505050565b805169ffffffffffffffffffff811681146108bd57600080fd5b600080600080600060a08688031215610a1c57600080fd5b610a25866109ea565b9450602086015193506040860151925060608601519150610a48608087016109ea565b90509295509295909350565b8082028115828204841417610a7957634e487b7160e01b600052601160045260246000fd5b92915050565b600060208284031215610a9157600080fd5b5051919050565b6040815283604082015283856060830137600060608583018101829052601f19601f8701168301838103820160208501529081018490526001600160fb1b03841115610ae357600080fd5b8360051b80866080840137016080019695505050505050565b600060208284031215610b0e57600080fd5b8151801515811461090757600080fd5b634e487b7160e01b600052604160045260246000fd5b600181811c90821680610b4857607f821691505b602082108103610b6857634e487b7160e01b600052602260045260246000fd5b50919050565b601f821115610bb857600081815260208120601f850160051c81016020861015610b955750805b601f850160051c820191505b81811015610bb457828155600101610ba1565b5050505b505050565b815167ffffffffffffffff811115610bd757610bd7610b1e565b610beb81610be58454610b34565b84610b6e565b602080601f831160018114610c205760008415610c085750858301515b600019600386901b1c1916600185901b178555610bb4565b600085815260208120601f198616915b82811015610c4f57888601518255948401946001909101908401610c30565b5085821015610c6d5787850151600019600388901b60f8161c191681555b5050505050600190811b0190555056fea26469706673582212207af98b0d58e965856318ac95597e649026dadc78371ada42f9377cb93d6003ea64736f6c63430008110033",
  "linkReferences": {},
  "deployedLinkReferences": {}
}