{
  "_format": "hh-sol-artifact-1",
  "contractName": "XoraCreditScoreHistory",
  "sourceName": "contracts/XoraCreditScoreHistory.sol",
  "abi": [
    {
      "inputs": [],
      "stateMutability": "nonpayable",
      "type": "constructor"
    },
    {
      "anonymous": false,
      "inputs": [
        {
          "indexed": true,
          "internalType": "address",
          "name": "_requester",
          "type": "address"
        },
        {
          "indexed": true,
          "internalType": "uint256",
          "name": "_score",
          "type": "uint256"
        }
      ],
      "name": "CreditScoreRequestCreated",
      "type": "event"
    },
    {
      "anonymous": false,
      "inputs": [
        {
          "indexed": true,
          "internalType": "address",
          "name": "previousOwner",
          "type": "address"
        },
        {
          "indexed": true,
          "internalType": "address",
          "name": "newOwner",
          "type": "address"
        }
      ],
      "name": "OwnershipTransferred",
      "type": "event"
    },
    {
      "inputs": [
        {
          "internalType": "address",
          "name": "requester",
          "type": "address"
        },
        {
          "internalType": "string[]",
          "name": "proofs",
          "type": "string[]"
        },
        {
          "internalType": "uint256",
          "name": "score",
          "type": "uint256"
        }
      ],
      "name": "addCreditScoreRequest",
      "outputs": [],
      "stateMutability": "nonpayable",
      "type": "function"
    },
    {
      "inputs": [
        {
          "internalType": "uint256",
          "name": "",
          "type": "uint256"
        }
      ],
      "name": "creditScoreRequests",
      "outputs": [
        {
          "internalType": "address",
          "name": "requester",
          "type": "address"
        },
        {
          "internalType": "uint256",
          "name": "score",
          "type": "uint256"
        },
        {
          "internalType": "uint256",
          "name": "timestamp",
          "type": "uint256"
        }
      ],
      "stateMutability": "view",
      "type": "function"
    },
    {
      "inputs": [],
      "name": "getCreditScoreRequests",
      "outputs": [
        {
          "components": [
            {
              "internalType": "address",
              "name": "requester",
              "type": "address"
            },
            {
              "internalType": "string[]",
              "name": "proofs",
              "type": "string[]"
            },
            {
              "internalType": "uint256",
              "name": "score",
              "type": "uint256"
            },
            {
              "internalType": "uint256",
              "name": "timestamp",
              "type": "uint256"
            }
          ],
          "internalType": "struct XoraCreditScoreHistory.CreditScoreRequest[]",
          "name": "",
          "type": "tuple[]"
        }
      ],
      "stateMutability": "view",
      "type": "function"
    },
    {
      "inputs": [],
      "name": "owner",
      "outputs": [
        {
          "internalType": "address",
          "name": "",
          "type": "address"
        }
      ],
      "stateMutability": "view",
      "type": "function"
    },
    {
      "inputs": [],
      "name": "renounceOwnership",
      "outputs": [],
      "stateMutability": "nonpayable",
      "type": "function"
    },
    {
      "inputs": [
        {
          "internalType": "address",
          "name": "newOwner",
          "type": "address"
        }
      ],
      "name": "transferOwnership",
      "outputs": [],
      "stateMutability": "nonpayable",
      "type": "function"
    }
  ],
  "bytecode": "0x608060405234801561001057600080fd5b5061001a3361001f565b61006f565b600080546001600160a01b038381166001600160a01b0319831681178455604051919092169283917f8be0079c531659141344cd1fd0a4f28419497f9722a3daafe3b4186f6b6457e09190a35050565b6109fc8061007e6000396000f3fe608060405234801561001057600080fd5b50600436106100625760003560e01c806361af9a7614610067578063715018a6146100855780638096bdda1461008f5780638da5cb5b146100a2578063ed779efd146100bd578063f2fde38b146100f5575b600080fd5b61006f610108565b60405161007c91906105a0565b60405180910390f35b61008d61025f565b005b61008d61009d36600461070f565b610273565b6000546040516001600160a01b03909116815260200161007c565b6100d06100cb366004610842565b61037e565b604080516001600160a01b03909416845260208401929092529082015260600161007c565b61008d61010336600461085b565b6103bb565b60606001805480602002602001604051908101604052809291908181526020016000905b828210156102565760008481526020808220604080516080810182526004870290920180546001600160a01b03168352600181018054835181870281018701909452808452939591948681019491929084015b8282101561022b57838290600052602060002001805461019e9061087d565b80601f01602080910402602001604051908101604052809291908181526020018280546101ca9061087d565b80156102175780601f106101ec57610100808354040283529160200191610217565b820191906000526020600020905b8154815290600101906020018083116101fa57829003601f168201915b50505050508152602001906001019061017f565b505050508152602001600282015481526020016003820154815250508152602001906001019061012c565b50505050905090565b610267610439565b6102716000610493565b565b61027b610439565b60405181906001600160a01b038516907fabd6e740f9696df9a074d0f2d955d991bbdb50ea946cf075672cfe96138e416590600090a3604080516080810182526001600160a01b038581168252602080830186815293830185905242606084015260018054808201825560009190915283517fb10e2d527612073b26eecdfd717e6a320cf44b4afac2b0732d9fcbe2b7fa0cf6600490920291820180546001600160a01b031916919094161783559351805193949293610362937fb10e2d527612073b26eecdfd717e6a320cf44b4afac2b0732d9fcbe2b7fa0cf7019291909101906104e3565b5060408201518160020155606082015181600301555050505050565b6001818154811061038e57600080fd5b60009182526020909120600490910201805460028201546003909201546001600160a01b03909116925083565b6103c3610439565b6001600160a01b03811661042d5760405162461bcd60e51b815260206004820152602660248201527f4f776e61626c653a206e6577206f776e657220697320746865207a65726f206160448201526564647265737360d01b60648201526084015b60405180910390fd5b61043681610493565b50565b6000546001600160a01b031633146102715760405162461bcd60e51b815260206004820181905260248201527f4f776e61626c653a2063616c6c6572206973206e6f7420746865206f776e65726044820152606401610424565b600080546001600160a01b038381166001600160a01b0319831681178455604051919092169283917f8be0079c531659141344cd1fd0a4f28419497f9722a3daafe3b4186f6b6457e09190a35050565b828054828255906000526020600020908101928215610529579160200282015b8281111561052957825182906105199082610906565b5091602001919060010190610503565b50610535929150610539565b5090565b8082111561053557600061054d8282610556565b50600101610539565b5080546105629061087d565b6000825580601f10610572575050565b601f01602090049060005260206000209081019061043691905b80821115610535576000815560010161058c565b6000602080830181845280855180835260408601915060408160051b870101925083870160005b8281101561069f57878503603f19018452815180516001600160a01b03168652868101516080888801819052815190880181905260a080890192600583901b8a0190910191908a019060005b81811015610673578a8403609f190185528251805180865260005b8181101561064c578e81840101518f82890101528e8101905061062e565b5060008682018f0152958d0195601f01601f19169094018c019350918b0191600101610613565b5050506040838101519089015260609283015192909701919091525092850192908501906001016105c7565b5092979650505050505050565b80356001600160a01b03811681146106c357600080fd5b919050565b634e487b7160e01b600052604160045260246000fd5b604051601f8201601f1916810167ffffffffffffffff81118282101715610707576107076106c8565b604052919050565b60008060006060848603121561072457600080fd5b61072d846106ac565b925060208085013567ffffffffffffffff8082111561074b57600080fd5b818701915087601f83011261075f57600080fd5b813581811115610771576107716106c8565b8060051b6107808582016106de565b918252838101850191858101908b84111561079a57600080fd5b86860192505b8383101561082b578235858111156107b85760008081fd5b8601603f81018d136107ca5760008081fd5b878101356040878211156107e0576107e06106c8565b6107f2601f8301601f19168b016106de565b8281528f828486010111156108075760008081fd5b828285018c83013760009281018b01929092525083525091860191908601906107a0565b989b989a5050505060409690960135955050505050565b60006020828403121561085457600080fd5b5035919050565b60006020828403121561086d57600080fd5b610876826106ac565b9392505050565b600181811c9082168061089157607f821691505b6020821081036108b157634e487b7160e01b600052602260045260246000fd5b50919050565b601f82111561090157600081815260208120601f850160051c810160208610156108de5750805b601f850160051c820191505b818110156108fd578281556001016108ea565b5050505b505050565b815167ffffffffffffffff811115610920576109206106c8565b6109348161092e845461087d565b846108b7565b602080601f83116001811461096957600084156109515750858301515b600019600386901b1c1916600185901b1785556108fd565b600085815260208120601f198616915b8281101561099857888601518255948401946001909101908401610979565b50858210156109b65787850151600019600388901b60f8161c191681555b5050505050600190811b0190555056fea2646970667358221220796296843f82e153d4fdf59462f0074202244fd0db2b09ea2232f8dae5e0384064736f6c63430008110033",
  "linkReferences": {},
  "deployedLinkReferences": {}
}