{
  "_format": "hh-sol-artifact-1",
  "contractName": "XoraCreditScore",
  "sourceName": "contracts/XoraCreditScore.sol",
  "abi": [
    {
      "inputs": [],
      "stateMutability": "nonpayable",
      "type": "constructor"
    },
    {
      "anonymous": false,
      "inputs": [
        {
          "indexed": true,
          "internalType": "address",
          "name": "_requester",
          "type": "address"
        },
        {
          "indexed": true,
          "internalType": "uint256",
          "name": "_score",
          "type": "uint256"
        }
      ],
      "name": "CreditScoreRequestCreated",
      "type": "event"
    },
    {
      "anonymous": false,
      "inputs": [
        {
          "indexed": true,
          "internalType": "address",
          "name": "previousOwner",
          "type": "address"
        },
        {
          "indexed": true,
          "internalType": "address",
          "name": "newOwner",
          "type": "address"
        }
      ],
      "name": "OwnershipTransferred",
      "type": "event"
    },
    {
      "inputs": [
        {
          "internalType": "address",
          "name": "requester",
          "type": "address"
        }
      ],
      "name": "createCreditScoreRequest",
      "outputs": [
        {
          "components": [
            {
              "internalType": "uint256",
              "name": "balanceETH",
              "type": "uint256"
            },
            {
              "internalType": "uint256",
              "name": "balanceUSD",
              "type": "uint256"
            },
            {
              "internalType": "uint256",
              "name": "erc20BalanceETH",
              "type": "uint256"
            },
            {
              "internalType": "uint256",
              "name": "erc20BalanceUSD",
              "type": "uint256"
            },
            {
              "internalType": "uint256",
              "name": "monthlyIncomeETH",
              "type": "uint256"
            },
            {
              "internalType": "uint256",
              "name": "monthlyIncomeUSD",
              "type": "uint256"
            }
          ],
          "internalType": "struct XoraCreditScore.CreditScoreInput",
          "name": "",
          "type": "tuple"
        }
      ],
      "stateMutability": "nonpayable",
      "type": "function"
    },
    {
      "inputs": [
        {
          "internalType": "address",
          "name": "requester",
          "type": "address"
        }
      ],
      "name": "getCreditScoreInput",
      "outputs": [
        {
          "components": [
            {
              "internalType": "uint256",
              "name": "balanceETH",
              "type": "uint256"
            },
            {
              "internalType": "uint256",
              "name": "balanceUSD",
              "type": "uint256"
            },
            {
              "internalType": "uint256",
              "name": "erc20BalanceETH",
              "type": "uint256"
            },
            {
              "internalType": "uint256",
              "name": "erc20BalanceUSD",
              "type": "uint256"
            },
            {
              "internalType": "uint256",
              "name": "monthlyIncomeETH",
              "type": "uint256"
            },
            {
              "internalType": "uint256",
              "name": "monthlyIncomeUSD",
              "type": "uint256"
            }
          ],
          "internalType": "struct XoraCreditScore.CreditScoreInput",
          "name": "",
          "type": "tuple"
        }
      ],
      "stateMutability": "view",
      "type": "function"
    },
    {
      "inputs": [],
      "name": "getLatestPriceEthUsd",
      "outputs": [
        {
          "internalType": "int256",
          "name": "",
          "type": "int256"
        }
      ],
      "stateMutability": "view",
      "type": "function"
    },
    {
      "inputs": [],
      "name": "getLatestPriceLinkEth",
      "outputs": [
        {
          "internalType": "int256",
          "name": "",
          "type": "int256"
        }
      ],
      "stateMutability": "view",
      "type": "function"
    },
    {
      "inputs": [],
      "name": "owner",
      "outputs": [
        {
          "internalType": "address",
          "name": "",
          "type": "address"
        }
      ],
      "stateMutability": "view",
      "type": "function"
    },
    {
      "inputs": [],
      "name": "renounceOwnership",
      "outputs": [],
      "stateMutability": "nonpayable",
      "type": "function"
    },
    {
      "inputs": [
        {
          "internalType": "address",
          "name": "newOwner",
          "type": "address"
        }
      ],
      "name": "transferOwnership",
      "outputs": [],
      "stateMutability": "nonpayable",
      "type": "function"
    },
    {
      "inputs": [
        {
          "internalType": "address",
          "name": "requester",
          "type": "address"
        },
        {
          "internalType": "bytes",
          "name": "_proof",
          "type": "bytes"
        },
        {
          "internalType": "bytes32[]",
          "name": "_publicInputs",
          "type": "bytes32[]"
        }
      ],
      "name": "verifyCreditScorePrediction",
      "outputs": [
        {
          "internalType": "bool",
          "name": "",
          "type": "bool"
        }
      ],
      "stateMutability": "nonpayable",
      "type": "function"
    }
  ],
  "bytecode": "0x60c060405234801561001057600080fd5b5061001a33610075565b7359f1ec1f10bd7ed9b938431086bc1d9e233ecf4160805273dc97ca0f3521c7f271555175314b812816ed125b60a052600380546001600160a01b031916737273ebbb21f8d8acf2bc12e71a08937712e9e40c1790556100c5565b600080546001600160a01b038381166001600160a01b0319831681178455604051919092169283917f8be0079c531659141344cd1fd0a4f28419497f9722a3daafe3b4186f6b6457e09190a35050565b60805160a051610b456100ea6000396000610188015260006102360152610b456000f3fe608060405234801561001057600080fd5b50600436106100885760003560e01c8063a57ecf6c1161005b578063a57ecf6c146100d5578063aba4e75314610134578063d89b7c7c14610147578063f2fde38b1461016a57600080fd5b80632dc5970d1461008d578063715018a6146100a857806385f2e6fb146100b25780638da5cb5b146100ba575b600080fd5b61009561017d565b6040519081526020015b60405180910390f35b6100b0610217565b005b61009561022b565b6000546040516001600160a01b03909116815260200161009f565b6100e86100e336600461077e565b610292565b60405161009f9190600060c082019050825182526020830151602083015260408301516040830152606083015160608301526080830151608083015260a083015160a083015292915050565b6100e861014236600461077e565b61032c565b61015a6101553660046107a0565b61049a565b604051901515815260200161009f565b6100b061017836600461077e565b6105da565b6000806000806000807f00000000000000000000000000000000000000000000000000000000000000006001600160a01b031663feaf968c6040518163ffffffff1660e01b815260040160a060405180830381865afa1580156101e4573d6000803e3d6000fd5b505050506040513d601f19601f820116820180604052508101906102089190610896565b50919998505050505050505050565b61021f610658565b61022960006106b2565b565b6000806000806000807f00000000000000000000000000000000000000000000000000000000000000006001600160a01b031663feaf968c6040518163ffffffff1660e01b815260040160a060405180830381865afa1580156101e4573d6000803e3d6000fd5b6102cb6040518060c001604052806000815260200160008152602001600081526020016000815260200160008152602001600081525090565b506001600160a01b0316600090815260016020818152604092839020835160c081018552815481529281015491830191909152600281015492820192909252600382015460608201526004820154608082015260059091015460a082015290565b6103656040518060c001604052806000815260200160008152602001600081526020016000815260200160008152602001600081525090565b6001600160a01b03821631600061037a61022b565b61038490836108e6565b9050600061039061017d565b6003546040516370a0823160e01b81526001600160a01b038881166004830152909116906370a0823190602401602060405180830381865afa1580156103da573d6000803e3d6000fd5b505050506040513d601f19601f820116820180604052508101906103fe9190610911565b61040891906108e6565b9050600061041461022b565b61041e90836108e6565b6040805160c081018252958652602080870195865286820194855260608701928352607b608088019081526101c860a089019081526001600160a01b03909a1660009081526001928390529290922087518155955190860155925160028501555160038401555051600482015592516005909301929092555090565b600080866001600160a01b031663ea50d0e4878787876040518563ffffffff1660e01b81526004016104cf949392919061092a565b602060405180830381865afa1580156104ec573d6000803e3d6000fd5b505050506040513d601f19601f82011682018060405250810190610510919061098e565b905080156105d0576040805160606020601f89018190040282018101835291810187815290918291908990899081908501838280828437600092019190915250505090825250604080516020878102828101820190935287825292830192909188918891829185019084908082843760009201829052509390945250506001600160a01b038a168152600260205260409020825190915081906105b39082610a4f565b5060208281015180516105cc9260018501920190610702565b5050505b9695505050505050565b6105e2610658565b6001600160a01b03811661064c5760405162461bcd60e51b815260206004820152602660248201527f4f776e61626c653a206e6577206f776e657220697320746865207a65726f206160448201526564647265737360d01b60648201526084015b60405180910390fd5b610655816106b2565b50565b6000546001600160a01b031633146102295760405162461bcd60e51b815260206004820181905260248201527f4f776e61626c653a2063616c6c6572206973206e6f7420746865206f776e65726044820152606401610643565b600080546001600160a01b038381166001600160a01b0319831681178455604051919092169283917f8be0079c531659141344cd1fd0a4f28419497f9722a3daafe3b4186f6b6457e09190a35050565b82805482825590600052602060002090810192821561073d579160200282015b8281111561073d578251825591602001919060010190610722565b5061074992915061074d565b5090565b5b80821115610749576000815560010161074e565b80356001600160a01b038116811461077957600080fd5b919050565b60006020828403121561079057600080fd5b61079982610762565b9392505050565b6000806000806000606086880312156107b857600080fd5b6107c186610762565b9450602086013567ffffffffffffffff808211156107de57600080fd5b818801915088601f8301126107f257600080fd5b81358181111561080157600080fd5b89602082850101111561081357600080fd5b60208301965080955050604088013591508082111561083157600080fd5b818801915088601f83011261084557600080fd5b81358181111561085457600080fd5b8960208260051b850101111561086957600080fd5b9699959850939650602001949392505050565b805169ffffffffffffffffffff8116811461077957600080fd5b600080600080600060a086880312156108ae57600080fd5b6108b78661087c565b94506020860151935060408601519250606086015191506108da6080870161087c565b90509295509295909350565b808202811582820484141761090b57634e487b7160e01b600052601160045260246000fd5b92915050565b60006020828403121561092357600080fd5b5051919050565b6040815283604082015283856060830137600060608583018101829052601f19601f8701168301838103820160208501529081018490526001600160fb1b0384111561097557600080fd5b8360051b80866080840137016080019695505050505050565b6000602082840312156109a057600080fd5b8151801515811461079957600080fd5b634e487b7160e01b600052604160045260246000fd5b600181811c908216806109da57607f821691505b6020821081036109fa57634e487b7160e01b600052602260045260246000fd5b50919050565b601f821115610a4a57600081815260208120601f850160051c81016020861015610a275750805b601f850160051c820191505b81811015610a4657828155600101610a33565b5050505b505050565b815167ffffffffffffffff811115610a6957610a696109b0565b610a7d81610a7784546109c6565b84610a00565b602080601f831160018114610ab25760008415610a9a5750858301515b600019600386901b1c1916600185901b178555610a46565b600085815260208120601f198616915b82811015610ae157888601518255948401946001909101908401610ac2565b5085821015610aff5787850151600019600388901b60f8161c191681555b5050505050600190811b0190555056fea2646970667358221220da0600ae00d59da93e785028cdfc2d16774e4e5c8457c36649a1c264c389b6ca64736f6c63430008110033",
  "linkReferences": {},
  "deployedLinkReferences": {}
}